:020000020000FC
:0200000033C00B
:040004000C949900BF
:100068000FEF0DBF08E00EBF42E045BF5A9A41E0CE
:100078004DBB78940E9472000E947F000E94560037
:100088000E949B000E947F000E948D000E945F00DA
:100098000E947F00082F0E94A000092F0E94A00044
:1000A8000C94480000E007B907E800937A0000E8DC
:1000B80000937C00089510917A00106410937A00E0
:1000C80010917A0014FFFCCF10917A001061109300
:1000D8007A008091780090917900089507E610E001
:1000E8000093C4001093C50008E10093C10006E026
:1000F8000093C20008951091C00015FFFCCF009333
:10010800C60008951091C00017FFFCCF0091C600EB
:10011800089522E338EC47EC00004A95E9F700001F
:100128003A95C9F72A95B1F7089592E3189510EB17
:1001380014B911E51CBD08952C980EBD4DB547FFA7
:06014800FDCF2C9A089582
:00000001FF
