:020000020000FC
:0200000033C00B
:100068000FEF0DBF08E00EBF0E946A000E947700E4
:100078000E944E000E9477000E9485000E9457004F
:100088000E947700082F0E947700092F0E947700AE
:100098000C94400000E007B907E800937A0000E8F4
:1000A80000937C00089510917A00106410937A00F0
:1000B80010917A0014FFFCCF10917A001061109310
:1000C8007A008091780090917900089507E610E011
:1000D8000093C4001093C50008E10093C10006E036
:1000E8000093C20008951091C00015FFFCCF009343
:1000F800C60008951091C00017FFFCCF0091C600FC
:10010800089522E338EC47EC00004A95E9F700002F
:0A0118003A95C9F72A95B1F708954A
:00000001FF
